{
  "contractName": "ERC165Compatible",
  "abi": [
    {
      "inputs": [],
      "stateMutability": "nonpayable",
      "type": "constructor"
    },
    {
      "inputs": [
        {
          "internalType": "bytes4",
          "name": "interfaceId",
          "type": "bytes4"
        }
      ],
      "name": "supportsInterface",
      "outputs": [
        {
          "internalType": "bool",
          "name": "",
          "type": "bool"
        }
      ],
      "stateMutability": "view",
      "type": "function"
    },
    {
      "inputs": [],
      "name": "setInterfaces",
      "outputs": [
        {
          "internalType": "bool",
          "name": "",
          "type": "bool"
        }
      ],
      "stateMutability": "nonpayable",
      "type": "function"
    }
  ],
  "bytecode": "0x608060405234801561001057600080fd5b506100276301ffc9a760e01b61003b60201b60201c565b61003561011060201b60201c565b506101a0565b63ffffffff60e01b817bffffffffffffffffffffffffffffffffffffffffffffffffffffffff191614156100a4576040517f08c379a000000000000000000000000000000000000000000000000000000000815260040161009b9061016f565b60405180910390fd5b6001600080837bffffffffffffffffffffffffffffffffffffffffffffffffffffffff19167bffffffffffffffffffffffffffffffffffffffffffffffffffffffff1916815260200190815260200160002060006101000a81548160ff02191690831515021790555050565b60006101286301ffc9a760e01b61003b60201b60201c565b6001905090565b600061013c601c8361018f565b91507f4552433136353a20696e76616c696420696e74657266616365206964000000006000830152602082019050919050565b600060208201905081810360008301526101888161012f565b9050919050565b600082825260208201905092915050565b61033c806101af6000396000f3fe608060405234801561001057600080fd5b50600436106100365760003560e01c806301ffc9a71461003b578063fca85eb31461006b575b600080fd5b610055600480360381019061005091906101f3565b610089565b604051610062919061026b565b60405180910390f35b6100736100f0565b604051610080919061026b565b60405180910390f35b6000806000837bffffffffffffffffffffffffffffffffffffffffffffffffffffffff19167bffffffffffffffffffffffffffffffffffffffffffffffffffffffff1916815260200190815260200160002060009054906101000a900460ff169050919050565b60006101026301ffc9a760e01b610109565b6001905090565b63ffffffff60e01b817bffffffffffffffffffffffffffffffffffffffffffffffffffffffff19161415610172576040517f08c379a000000000000000000000000000000000000000000000000000000000815260040161016990610286565b60405180910390fd5b6001600080837bffffffffffffffffffffffffffffffffffffffffffffffffffffffff19167bffffffffffffffffffffffffffffffffffffffffffffffffffffffff1916815260200190815260200160002060006101000a81548160ff02191690831515021790555050565b6000813590506101ed816102ef565b92915050565b60006020828403121561020557600080fd5b6000610213848285016101de565b91505092915050565b610225816102b7565b82525050565b6000610238601c836102a6565b91507f4552433136353a20696e76616c696420696e74657266616365206964000000006000830152602082019050919050565b6000602082019050610280600083018461021c565b92915050565b6000602082019050818103600083015261029f8161022b565b9050919050565b600082825260208201905092915050565b60008115159050919050565b60007fffffffff0000000000000000000000000000000000000000000000000000000082169050919050565b6102f8816102c3565b811461030357600080fd5b5056fea26469706673582212201cca1ba87b2d065c82714450d28c4240fb2de95acc4ec765060178df89f5c66664736f6c63430006090033",
  "immutableReferences": {},
  "source": "// SPDX-License-Identifier: CC0\npragma solidity ^0.6.9;\npragma experimental ABIEncoderV2;\n\nimport \"@openzeppelin/contracts/introspection/ERC165.sol\";\n\ncontract ERC165Compatible is ERC165 {\n\n    constructor() public {\n        setInterfaces();\n    }\n\n    function setInterfaces() public virtual  returns (bool) {\n        _registerInterface(this.supportsInterface.selector);\n        return true;\n    }\n}\n",
  "sourcePath": "/home/sekmet/HACKATHON/BASELINE/CHALLENGES/Basecontracts/contracts/registry/lib/ERC165Compatible.sol",
  "compiler": {
    "name": "solc",
    "version": "0.6.9+commit.3e3065ac.Emscripten.clang"
  },
  "schemaVersion": "3.3.3",
  "updatedAt": "2021-01-25T19:44:48.740Z",
  "devdoc": {
    "methods": {
      "supportsInterface(bytes4)": {
        "details": "See {IERC165-supportsInterface}. Time complexity O(1), guaranteed to always use less than 30 000 gas."
      }
    }
  },
  "userdoc": {
    "methods": {}
  }
}