{
  "contractName": "VerifierNoop",
  "abi": [
    {
      "inputs": [
        {
          "internalType": "uint256[]",
          "name": "_proof",
          "type": "uint256[]"
        },
        {
          "internalType": "uint256[]",
          "name": "_publicInputs",
          "type": "uint256[]"
        }
      ],
      "name": "verify",
      "outputs": [
        {
          "internalType": "bool",
          "name": "result",
          "type": "bool"
        }
      ],
      "stateMutability": "pure",
      "type": "function"
    }
  ],
  "bytecode": "0x608060405234801561001057600080fd5b5061026d806100206000396000f3fe608060405234801561001057600080fd5b506004361061002b5760003560e01c8063b864f5a914610030575b600080fd5b6100fc6004803603604081101561004657600080fd5b810190808035906020019064010000000081111561006357600080fd5b82018360208201111561007557600080fd5b8035906020019184602083028401116401000000008311171561009757600080fd5b9091929391929390803590602001906401000000008111156100b857600080fd5b8201836020820111156100ca57600080fd5b803590602001918460208302840111640100000000831117156100ec57600080fd5b9091929391929390505050610116565b604051808215151515815260200191505060405180910390f35b6000808585600081811061012657fe5b9050602002013514156101a1576040517f08c379a00000000000000000000000000000000000000000000000000000000081526004018080602001828103825260128152602001807f50726f6f6620697320756e646566696e6564000000000000000000000000000081525060200191505060405180910390fd5b6000838360008181106101b057fe5b90506020020135141561022b576040517f08c379a00000000000000000000000000000000000000000000000000000000081526004018080602001828103825260128152602001807f496e70757420697320756e646566696e6564000000000000000000000000000081525060200191505060405180910390fd5b6001905094935050505056fea26469706673582212202bd936c8f6d556eaa9baf2a49ecb01f6cd2a36c393ac7d5ba605aae6d7cb845764736f6c63430006090033",
  "immutableReferences": {},
  "source": "// SPDX-License-Identifier: CC0\npragma solidity ^0.6.9;\n\n// Verifies all calls containing proper parameters\n// Do not use this example in any production code!\ncontract VerifierNoop {\n\n    function verify(\n        uint256[] calldata _proof,\n        uint256[] calldata _publicInputs\n    ) external pure returns (bool result) {\n        require(_proof[0] != 0, \"Proof is undefined\");\n        require(_publicInputs[0] != 0, \"Input is undefined\");\n        return true;\n    }\n    \n}\n",
  "sourcePath": "/home/sekmet/HACKATHON/BASELINE/CHALLENGES/Basecontracts/contracts/privacy/lib/VerifierNoop.sol",
  "compiler": {
    "name": "solc",
    "version": "0.6.9+commit.3e3065ac.Emscripten.clang"
  },
  "schemaVersion": "3.3.3",
  "updatedAt": "2021-01-25T19:44:48.712Z",
  "devdoc": {
    "methods": {}
  },
  "userdoc": {
    "methods": {}
  }
}